{
  "contractName": "CurseCoin",
  "abi": [
    {
      "constant": true,
      "inputs": [],
      "name": "name",
      "outputs": [
        {
          "name": "",
          "type": "string"
        }
      ],
      "payable": false,
      "stateMutability": "view",
      "type": "function"
    },
    {
      "constant": true,
      "inputs": [
        {
          "name": "",
          "type": "address"
        }
      ],
      "name": "unfortunates",
      "outputs": [
        {
          "name": "",
          "type": "bool"
        }
      ],
      "payable": false,
      "stateMutability": "view",
      "type": "function"
    },
    {
      "constant": false,
      "inputs": [],
      "name": "renounceOwnership",
      "outputs": [],
      "payable": false,
      "stateMutability": "nonpayable",
      "type": "function"
    },
    {
      "constant": true,
      "inputs": [],
      "name": "owner",
      "outputs": [
        {
          "name": "",
          "type": "address"
        }
      ],
      "payable": false,
      "stateMutability": "view",
      "type": "function"
    },
    {
      "constant": true,
      "inputs": [],
      "name": "symbol",
      "outputs": [
        {
          "name": "",
          "type": "string"
        }
      ],
      "payable": false,
      "stateMutability": "view",
      "type": "function"
    },
    {
      "constant": true,
      "inputs": [],
      "name": "curseCost",
      "outputs": [
        {
          "name": "",
          "type": "uint256"
        }
      ],
      "payable": false,
      "stateMutability": "view",
      "type": "function"
    },
    {
      "constant": false,
      "inputs": [
        {
          "name": "_newOwner",
          "type": "address"
        }
      ],
      "name": "transferOwnership",
      "outputs": [],
      "payable": false,
      "stateMutability": "nonpayable",
      "type": "function"
    },
    {
      "inputs": [],
      "payable": false,
      "stateMutability": "nonpayable",
      "type": "constructor"
    },
    {
      "anonymous": false,
      "inputs": [
        {
          "indexed": false,
          "name": "_curser",
          "type": "address"
        },
        {
          "indexed": false,
          "name": "_accursed",
          "type": "address"
        }
      ],
      "name": "Curse",
      "type": "event"
    },
    {
      "anonymous": false,
      "inputs": [
        {
          "indexed": false,
          "name": "_blessed",
          "type": "address"
        }
      ],
      "name": "Nullify",
      "type": "event"
    },
    {
      "anonymous": false,
      "inputs": [
        {
          "indexed": true,
          "name": "previousOwner",
          "type": "address"
        }
      ],
      "name": "OwnershipRenounced",
      "type": "event"
    },
    {
      "anonymous": false,
      "inputs": [
        {
          "indexed": true,
          "name": "previousOwner",
          "type": "address"
        },
        {
          "indexed": true,
          "name": "newOwner",
          "type": "address"
        }
      ],
      "name": "OwnershipTransferred",
      "type": "event"
    },
    {
      "constant": false,
      "inputs": [
        {
          "name": "_victim",
          "type": "address"
        }
      ],
      "name": "curse",
      "outputs": [],
      "payable": true,
      "stateMutability": "payable",
      "type": "function"
    },
    {
      "constant": false,
      "inputs": [],
      "name": "nullify",
      "outputs": [],
      "payable": true,
      "stateMutability": "payable",
      "type": "function"
    },
    {
      "constant": false,
      "inputs": [],
      "name": "withdraw",
      "outputs": [],
      "payable": false,
      "stateMutability": "nonpayable",
      "type": "function"
    },
    {
      "constant": true,
      "inputs": [],
      "name": "amICursed",
      "outputs": [
        {
          "name": "",
          "type": "bool"
        }
      ],
      "payable": false,
      "stateMutability": "view",
      "type": "function"
    }
  ],
  "bytecode": "0x608060405234801561001057600080fd5b50336000806101000a81548173ffffffffffffffffffffffffffffffffffffffff021916908373ffffffffffffffffffffffffffffffffffffffff1602179055506040805190810160405280600981526020017f4375727365436f696e00000000000000000000000000000000000000000000008152506001908051906020019061009c9291906100fd565b506040805190810160405280600281526020017f4343000000000000000000000000000000000000000000000000000000000000815250600290805190602001906100e89291906100fd565b50670de0b6b3a76400006003819055506101a2565b828054600181600116156101000203166002900490600052602060002090601f016020900481019282601f1061013e57805160ff191683800117855561016c565b8280016001018555821561016c579182015b8281111561016b578251825591602001919060010190610150565b5b509050610179919061017d565b5090565b61019f91905b8082111561019b576000816000905550600101610183565b5090565b90565b610d0d806101b16000396000f3006080604052600436106100af576000357c0100000000000000000000000000000000000000000000000000000000900463ffffffff16806306fdde03146100b45780633ccfd60b1461014457806348c3bbc11461015b5780634d2b2c6f1461018a578063715018a6146101e55780637773260d146101fc5780638da5cb5b1461023257806395d89b4114610289578063ba541cf314610319578063ece20f3614610344578063f2fde38b1461034e575b600080fd5b3480156100c057600080fd5b506100c9610391565b6040518080602001828103825283818151815260200191508051906020019080838360005b838110156101095780820151818401526020810190506100ee565b50505050905090810190601f1680156101365780820380516001836020036101000a031916815260200191505b509250505060405180910390f35b34801561015057600080fd5b5061015961042f565b005b34801561016757600080fd5b506101706104ea565b604051808215151515815260200191505060405180910390f35b34801561019657600080fd5b506101cb600480360381019080803573ffffffffffffffffffffffffffffffffffffffff16906020019092919050505061053e565b604051808215151515815260200191505060405180910390f35b3480156101f157600080fd5b506101fa61055e565b005b610230600480360381019080803573ffffffffffffffffffffffffffffffffffffffff169060200190929190505050610660565b005b34801561023e57600080fd5b50610247610893565b604051808273ffffffffffffffffffffffffffffffffffffffff1673ffffffffffffffffffffffffffffffffffffffff16815260200191505060405180910390f35b34801561029557600080fd5b5061029e6108b8565b6040518080602001828103825283818151815260200191508051906020019080838360005b838110156102de5780820151818401526020810190506102c3565b50505050905090810190601f16801561030b5780820380516001836020036101000a031916815260200191505b509250505060405180910390f35b34801561032557600080fd5b5061032e610956565b6040518082815260200191505060405180910390f35b61034c61095c565b005b34801561035a57600080fd5b5061038f600480360381019080803573ffffffffffffffffffffffffffffffffffffffff169060200190929190505050610b80565b005b60018054600181600116156101000203166002900480601f0160208091040260200160405190810160405280929190818152602001828054600181600116156101000203166002900480156104275780601f106103fc57610100808354040283529160200191610427565b820191906000526020600020905b81548152906001019060200180831161040a57829003601f168201915b505050505081565b6000809054906101000a900473ffffffffffffffffffffffffffffffffffffffff1673ffffffffffffffffffffffffffffffffffffffff163373ffffffffffffffffffffffffffffffffffffffff1614151561048a57600080fd5b3373ffffffffffffffffffffffffffffffffffffffff166108fc3073ffffffffffffffffffffffffffffffffffffffff16319081150290604051600060405180830381858888f193505050501580156104e7573d6000803e3d6000fd5b50565b6000600460003373ffffffffffffffffffffffffffffffffffffffff1673ffffffffffffffffffffffffffffffffffffffff16815260200190815260200160002060009054906101000a900460ff16905090565b60046020528060005260406000206000915054906101000a900460ff1681565b6000809054906101000a900473ffffffffffffffffffffffffffffffffffffffff1673ffffffffffffffffffffffffffffffffffffffff163373ffffffffffffffffffffffffffffffffffffffff161415156105b957600080fd5b6000809054906101000a900473ffffffffffffffffffffffffffffffffffffffff1673ffffffffffffffffffffffffffffffffffffffff167ff8df31144d9c2f0f6b59d69b8b98abd5459d07f2742c4df920b25aae33c6482060405160405180910390a260008060006101000a81548173ffffffffffffffffffffffffffffffffffffffff021916908373ffffffffffffffffffffffffffffffffffffffff160217905550565b600354341115156106d9576040517f08c379a000000000000000000000000000000000000000000000000000000000815260040180806020018281038252601c8152602001807f596f7520676f74746120706179207468652074726f6c6c20746f6c6c0000000081525060200191505060405180910390fd5b60001515600460008373ffffffffffffffffffffffffffffffffffffffff1673ffffffffffffffffffffffffffffffffffffffff16815260200190815260200160002060009054906101000a900460ff1615151415156107a1576040517f08c379a00000000000000000000000000000000000000000000000000000000081526004018080602001828103825260188152602001807f56696374696d20697320616c726561647920637572736564000000000000000081525060200191505060405180910390fd5b6001600460008373ffffffffffffffffffffffffffffffffffffffff1673ffffffffffffffffffffffffffffffffffffffff16815260200190815260200160002060006101000a81548160ff0219169083151502179055507f59721143a7f289b91df5bb14a48bc159bc32df513f0859690b43abe434f6fadb3382604051808373ffffffffffffffffffffffffffffffffffffffff1673ffffffffffffffffffffffffffffffffffffffff1681526020018273ffffffffffffffffffffffffffffffffffffffff1673ffffffffffffffffffffffffffffffffffffffff1681526020019250505060405180910390a150565b6000809054906101000a900473ffffffffffffffffffffffffffffffffffffffff1681565b60028054600181600116156101000203166002900480601f01602080910402602001604051908101604052809291908181526020018280546001816001161561010002031660029004801561094e5780601f106109235761010080835404028352916020019161094e565b820191906000526020600020905b81548152906001019060200180831161093157829003601f168201915b505050505081565b60035481565b600354341115156109fb576040517f08c379a00000000000000000000000000000000000000000000000000000000081526004018080602001828103825260268152602001807f596f7520676f747461207061792074686520756e63757273696e672074726f6c81526020017f6c20746f6c6c000000000000000000000000000000000000000000000000000081525060400191505060405180910390fd5b60011515600460003373ffffffffffffffffffffffffffffffffffffffff1673ffffffffffffffffffffffffffffffffffffffff16815260200190815260200160002060009054906101000a900460ff161515141515610ac3576040517f08c379a000000000000000000000000000000000000000000000000000000000815260040180806020018281038252601b8152602001807f596f75277265206e6f74206576656e2063757273656420f09fa494000000000081525060200191505060405180910390fd5b6001600460003373ffffffffffffffffffffffffffffffffffffffff1673ffffffffffffffffffffffffffffffffffffffff16815260200190815260200160002060006101000a81548160ff0219169083151502179055507fd7f5a96b0c271768770696d331ccfbac711601b8b926bbefd7478bd7e8c5528433604051808273ffffffffffffffffffffffffffffffffffffffff1673ffffffffffffffffffffffffffffffffffffffff16815260200191505060405180910390a1565b6000809054906101000a900473ffffffffffffffffffffffffffffffffffffffff1673ffffffffffffffffffffffffffffffffffffffff163373ffffffffffffffffffffffffffffffffffffffff16141515610bdb57600080fd5b610be481610be7565b50565b600073ffffffffffffffffffffffffffffffffffffffff168173ffffffffffffffffffffffffffffffffffffffff1614151515610c2357600080fd5b8073ffffffffffffffffffffffffffffffffffffffff166000809054906101000a900473ffffffffffffffffffffffffffffffffffffffff1673ffffffffffffffffffffffffffffffffffffffff167f8be0079c531659141344cd1fd0a4f28419497f9722a3daafe3b4186f6b6457e060405160405180910390a3806000806101000a81548173ffffffffffffffffffffffffffffffffffffffff021916908373ffffffffffffffffffffffffffffffffffffffff160217905550505600a165627a7a723058206d5ebdf7dcdf32f13c3560a0ba65236ec32eddbe7d600b14a542eab8e8f40a3b0029",
  "source": "pragma solidity ^0.4.2;\n\n// SafeMath helps prevent integer overflows\nimport \"openzeppelin-solidity/contracts/math/SafeMath.sol\";\n// Ownable helps streamline contract inheritance\nimport \"openzeppelin-solidity/contracts/ownership/Ownable.sol\";\n\n// Initiates this address as the owner\ncontract CurseCoin is Ownable {\n    // adds SafeMath methods to uint256 types\n    using SafeMath for uint256;\n\n    string public name;\n    string public symbol;\n    uint256 public curseCost;\n\n    // Events are small empty functions that can be called as a signal or log.\n    event Curse(address _curser, address _accursed);\n    event Nullify(address _blessed);\n\n    mapping(address => bool) public unfortunates;\n\n    constructor() public {\n        name = \"CurseCoin\";\n        symbol = \"CC\";\n        curseCost = 1 ether;\n    }\n\n    // curse allows msg.sender to curse a victim if they pay the curseCost\n    function curse(address _victim) public payable {\n        // checks that curser is sending correct amount for cursing\n        require((msg.value > curseCost), \"You gotta pay the troll toll\");\n\n        // first check if curse's address\n        require((unfortunates[_victim] == false), \"Victim is already cursed\");\n\n        unfortunates[_victim] = true;\n        emit Curse(msg.sender, _victim);\n    }\n\n    // nullify allows msg.sender to uncurse themself (if applicable) if they pay the curseCost\n    function nullify() public payable {\n        // checks that curser is sending correct amount for uncursing\n        require((msg.value > curseCost), \"You gotta pay the uncursing troll toll\");\n\n        // first check if curse's address\n        require((unfortunates[msg.sender] == true), \"You're not even cursed 🤔\");\n\n        unfortunates[msg.sender] = true;\n        emit Nullify(msg.sender);\n    }\n\n    // withdraw allows the brilliant contract writers to cash out\n    function withdraw() public onlyOwner {\n        msg.sender.transfer(address(this).balance);\n    }\n\n    // amICursed allows msg.sender to check if they're cursed\n    function amICursed() public view returns (bool) {\n        return unfortunates[msg.sender];\n    }\n}",
  "sourcePath": "/Users/natalievillasana/dev/cursecoin/contracts/CurseCoin.sol",
  "compiler": {
    "name": "solc",
    "version": "0.4.24+commit.e67f0147.Emscripten.clang"
  },
  "schemaVersion": "2.0.1",
  "updatedAt": "2018-09-04T19:19:35.389Z"
}